:020000040800F2
:1000000000000220991D0008ED090008EF09000812
:10001000F1090008F3090008F509000800000000D4
:10002000000000000000000000000000F7090008C8
:10003000F909000800000000FB090008FD0900089C
:10004000E91D0008E91D0008E91D0008E91D000878
:10005000E91D0008E91D0008E91D0008E91D000868
:10006000E91D0008E91D0008E91D0008E91D000858
:10007000E91D0008E91D0008E91D0008E91D000848
:10008000E91D0008E91D0008E91D0008E91D000838
:10009000E91D0008E91D0008E91D0008E91D000828
:1000A000E91D0008E91D0008E91D0008E91D000818
:1000B000E91D0008E91D0008E91D0008E91D000808
:1000C000E91D0008E91D0008E91D0008E91D0008F8
:1000D000E91D0008E91D0008E91D0008E91D0008E8
:1000E000E91D0008E91D0008E91D0008E91D0008D8
:1000F000E91D0008E91D0008E91D0008E91D0008C8
:10010000E91D0008E91D0008E91D0008E91D0008B7
:10011000E91D0008E91D0008E91D0008E91D0008A7
:10012000E91D0008E91D0008E91D0008E91D000897
:10013000E91D0008E91D0008E91D0008E91D000887
:10014000E91D0008E91D0008E91D0008E91D000877
:10015000E91D0008E91D0008E91D0008E91D000867
:10016000E91D0008E91D0008E91D0008E91D000857
:10017000E91D0008E91D0008E91D00080000000055
:08018000E91D0008E91D00085B
:1001880010B5054C237833B9044B13B10448AFF3C9
:1001980000800123237010BD24000020000000000F
:1001A800441E000808B5034B1BB103490348AFF3CD
:1001B800008008BD0000000028000020441E000840
:1001C80053B94AB9002908BF00281CBF4FF0FF31B6
:1001D8004FF0FF3000F074B9ADF1080C6DE904CEB2
:1001E80000F006F8DDF804E0DDE9022304B070470A
:1001F8002DE9F047089D04468E46002B4DD18A42D2
:10020800944669D9B2FA82F252B101FA02F3C2F104
:10021800200120FA01F10CFA02FC41EA030E944095
:100228004FEA1C48210CBEFBF8F61FFA8CF708FBB6
:1002380016E341EA034306FB07F199420AD91CEB8E
:10024800030306F1FF3080F01F81994240F21C81C0
:10025800023E63445B1AA4B2B3FBF8F008FB103308
:1002680044EA034400FB07F7A7420AD91CEB04043D
:1002780000F1FF3380F00A81A74240F2078164440D
:10028800023840EA0640E41B00261DB1D440002392
:10029800C5E900433146BDE8F0878B4209D9002DF6
:1002A80000F0EF800026C5E9000130463146BDE880
:1002B800F087B3FA83F6002E4AD18B4202D38242EA
:1002C80000F2F980841A61EB030301209E46002D99
:1002D800E0D0C5E9004EDDE702B9FFDEB2FA82F2EE
:1002E800002A40F09280A1EB0C014FEA1C471FFA4C
:1002F8008CFE0126200CB1FBF7F307FB131140EA33
:1003080001410EFB03F0884208D91CEB010103F1FF
:10031800FF3802D2884200F2CB804346091AA4B2C1
:10032800B1FBF7F007FB101144EA01440EFB00FE95
:10033800A64508D91CEB040400F1FF3102D2A645FA
:1003480000F2BB800846A4EB0E0440EA03409CE799
:10035800C6F12007B34022FA07FC4CEA030C20FA46
:1003680007F401FA06F31C43F9404FEA1C4900FA66
:1003780006F3B1FBF9F8200C1FFA8CFE09FB1811E3
:1003880040EA014108FB0EF0884202FA06F20BD956
:100398001CEB010108F1FF3A80F08880884240F2A6
:1003A8008580A8F102086144091AA4B2B1FBF9F0EA
:1003B80009FB101144EA014100FB0EFE8E4508D9E5
:1003C8001CEB010100F1FF346CD28E456AD902386A
:1003D800614440EA0840A0FB0294A1EB0E01A1424F
:1003E800C846A64656D353D05DB1B3EB080261EBBD
:1003F8000E0101FA07F722FA06F3F1401F43C5E997
:10040800007100263146BDE8F087C2F12003D840CC
:100418000CFA02FC21FA03F3914001434FEA1C470E
:100428001FFA8CFEB3FBF7F007FB10360B0C43EA00
:10043800064300FB0EF69E4204FA02F408D91CEBB0
:10044800030300F1FF382FD29E422DD902386344AE
:100458009B1B89B2B3FBF7F607FB163341EA03414E
:1004680006FB0EF38B4208D91CEB010106F1FF389D
:1004780016D28B4214D9023E6144C91A46EA004694
:1004880038E72E46284605E70646E3E61846F8E626
:100498004B45A9D2B9EB020864EB0C0E0138A3E76F
:1004A8004646EAE7204694E74046D1E7D0467BE750
:1004B800023B614432E7304609E76444023842E7C8
:1004C800704700BF00B589B00022039204920592DC
:1004D800069207920092154B196B41F0800119633F
:1004E800196B01F08001009100990192196B41F09C
:1004F80001011963196B01F001010191019902923F
:100508001A6B42F002021A631B6B03F00203029398
:10051800029B4FF4807303930223049303A90448B6
:1005280000F0AAFB09B05DF804FB00BF00380240E8
:100538000000024008B50B480B4B03600B4B4360AF
:1005480000238360C3604FF480420261436183618A
:10055800C361036200F0CCFD00B908BD00F0C8F823
:10056800FBE700BF4000002000540040801A06004E
:1005780030B589B00023039304930593069307933A
:100588000268154B9A4201D009B030BD002501958B
:10059800124C236B43F002032363236B03F0020323
:1005A8000193019B4FF44073039312230493012397
:1005B8000593032306930423079303A9084800F02F
:1005C8005BFB0295236C43F400132364236C03F450
:1005D80000130293029BD7E7005400400038024002
:1005E8000004024030B595B03022002108A801F07F
:1005F8001DFC002403940494059406940794019424
:100608001D4B1A6C42F080521A641B6C03F0805325
:100618000193019B0294194B1A6842F480421A60B4
:100628001B6803F480430293029B0225089501236B
:100638000B9310230C930E950F9408231093782393
:10064800119312950423139308A800F09DFE0F231D
:100658000393049505944FF4A05306934FF48053E5
:100668000793032103A801F0FBF822462146204600
:1006780001F056F815B030BD003802400070004057
:1006880008B500F05BFAFFF7ADFFFFF71BFFFFF7B8
:1006980051FF00F0D9F900F07BF80021084600F07E
:1006A8007DF9104C012394E806000F4800F05EF92C
:1006B80000F046F84FF4FA6000F06CFA002000F001
:1006C8002FF80021084600F069F9012394E8060094
:1006D800064800F04BF900F033F84FF4FA6000F0E8
:1006E80059FADAE70800002088460008944600080E
:1006F8007047000000B587B08DF817000A230293F1
:10070800012301930DF1170200920022782103487A
:1007180000F07CFD07B05DF804FB00BF400000203E
:10072800002303E0FF21054AD1540133B3F5806F5C
:1007380003D20028F6D10146F5E77047940000205F
:1007480010B584B000241AE0A4F15000C0B2FFF73D
:10075800D1FF0020FFF7CEFF1020FFF7CBFF1923B2
:10076800029380230193084B03EBC41300930123E6
:1007780040227821054800F049FD0134E4B2072CF5
:10078800E2D904B010BD00BF940000204000002052
:1007980008B5642000F0FEF9AE20FFF7ABFF20207B
:1007A800FFF7A8FF1020FFF7A5FFB020FFF7A2FF73
:1007B800C820FFF79FFF0020FFF79CFF1020FFF7DE
:1007C80099FF4020FFF796FF8120FFF793FFFF2056
:1007D800FFF790FFA120FFF78DFFA620FFF78AFF04
:1007E800A820FFF787FF3F20FFF784FFA420FFF72B
:1007F80081FFD320FFF77EFF0020FFF77BFFD52086
:10080800FFF778FFF020FFF775FFD920FFF772FF99
:100818002220FFF76FFFDA20FFF76CFF1220FFF7A7
:1008280069FFDB20FFF766FF2020FFF763FF8D20BD
:10083800FFF760FF1420FFF75DFFAF20FFF75AFFB7
:100848000020FFF76DFFFFF77BFF054B0022A3F8A1
:100858000024A3F80224012083F8050408BD00BF82
:100868009400002010F0800F16D13F2914D8114BA6
:1008780093F8043413B1B2FA82F25209012A0CD067
:10088800CB0800EBC31001F0070101238B40094A94
:10089800115C21EA030111547047CB0800EBC31027
:1008A80001F0070101238B40024A115C19431154DE
:1008B800704700BF940000202DE9F04782B08146C0
:1008C80002A800E906009846274BB3F800349DF8C3
:1008D800006033447F2B42DC234BB3F802349DF88D
:1008E80001A053443F2B3CDC002523E01E4BB3F80A
:1008F8000004B3F8021429442044B8FA88F25209D3
:10090800C9B2C0B2FFF7AEFF0134A64211D907FA47
:1009180004F313F4004FE9D0134BB3F80004B3F811
:100928000214294420444246C9B2C0B2FFF79AFFD4
:10093800EAE70135AA4508D9A9F1200303FB0A53C0
:10094800019A32F813700024DFE7074BB3F800244C
:100958001644A3F80064484602B0BDE8F0870020BA
:10096800FAE70020F8E700BF9400002030B583B014
:10097800044602A800E906001D4600E0013420787C
:1009880048B12B4602AA12E90600FFF795FF024676
:1009980020788242F2D003B030BD0000024BA3F8A9
:1009A8000004A3F8021470479400002082B00021CC
:1009B80000910B4B5A6C42F480425A645A6C02F410
:1009C80080420092009A01911A6C42F080521A6497
:1009D8001B6C03F080530193019B02B0704700BF6A
:1009E800003802407047FEE7FEE7FEE7FEE7704783
:1009F8007047704708B500F0BBF808BD0F49D1F83B
:100A0800883043F47003C1F888300D4B1A6842F0FF
:100A180001021A60002098601A6822F0847222F499
:100A280080321A60074A5A601A6822F480221A60D3
:100A3800D8604FF000638B60704700BF00ED00E0A6
:100A4800003802401030002408B50A480A4B0360F9
:100A58004FF4E133436000238360C36003610C22D9
:100A680042618361C36101F063F900B908BDFFF712
:100A78003FFEFBE79C0400200010014000B589B050
:100A8800002303930493059306930793026803F1E5
:100A9800804303F588339A4202D009B05DF804FB1D
:100AA8000021019103F594335A6C42F010025A6404
:100AB8005A6C02F010020192019A02911A6B42F0EC
:100AC80001021A631B6B03F001030293029B4FF4AC
:100AD800C06303930223049301230593032306931E
:100AE8000723079303A9024800F0C6F8D5E700BF1B
:100AF8000000024010B504460E4B18784FF47A7384
:100B0800B3FBF0F30C4A1068B0FBF3F000F0A0F868
:100B180068B90F2C01D901200AE0002221464FF0C4
:100B2800FF3000F05DF8034B5C60002000E001201E
:100B380010BD00BF1C0000201800002008B50B4B9A
:100B48001A6842F400721A601A6842F480621A60E5
:100B58001A6842F480721A60032000F02FF800200F
:100B6800FFF7C8FFFFF722FF002008BD003C024046
:100B7800034A1168034B1B780B441360704700BF8E
:100B8800DC0400201C000020014B1868704700BFDF
:100B9800DC04002038B50446FFF7F6FF0546B4F13B
:100BA800FF3F02D0044B1B781C44FFF7EDFF401BAE
:100BB800A042FAD338BD00BF1C000020074AD36802
:100BC80023F4E0631B041B0C000200F4E060034301
:100BD80043F0BF6343F40033D360704700ED00E097
:100BE80000B5194BDB68C3F30223C3F1070CBCF152
:100BF800040F28BF4FF0040C03F1040EBEF1060FDA
:100C080018D9033B4FF0FF3E0EFA0CFC21EA0C0109
:100C180099400EFA03F322EA0303194300280BDB79
:100C28000901C9B200F1604000F5614080F8001385
:100C38005DF804FB0023E5E700F00F000901C9B2E5
:100C4800024B1954F4E700BF00ED00E014ED00E09A
:100C58000138B0F1807F0BD24FF0E0235861054A8C
:100C6800F02182F823100020986107221A6170474A
:100C78000120704700ED00E000230F2B00F2D88020
:100C8800F0B583B03AE0072200E00022AA403243E0
:100C98000234684D45F82420674A14686FEA0C024C
:100CA80024EA0C054E6816F4803F01D04CEA04058E
:100CB800614C2560646802EA04054E6816F4003F3A
:100CC80001D04CEA04055C4C6560A46802EA04059E
:100CD8004E6816F4801F01D04CEA0405564CA560F6
:100CE800E46822404D6815F4001F01D04CEA040264
:100CF800514CE26001330F2B00F2988001229A4098
:100D08000C6804EA020C32EA0404F3D14C68022CA1
:100D180001D0122C10D1DD08083550F8257003F0E9
:100D28000704A6000F24B44027EA040E0C69B44057
:100D380044EA0E0440F8254006684FEA430E0324AF
:100D480004FA0EF4E54326EA04064C6804F00304AA
:100D580004FA0EF4344304604C68661E012E03D96D
:100D6800112C01D0122C0FD186682E40CC6804FAC1
:100D78000EF434438460446824EA02024C68C4F3E5
:100D880000149C4014434460C26815408A6802FA03
:100D98000EF22A43C2604A6812F0805FAAD000228D
:100DA8000192264A546C44F480445464526C02F410
:100DB80080420192019A9C08A51C1E4A52F825609F
:100DC80003F0030295000F22AA4026EA02061C4AF5
:100DD80090423FF45AAF02F5806290421AD002F571
:100DE8008062904218D002F58062904216D002F5D7
:100DF8008062904214D002F58062904212D002F5CF
:100E08008062904210D002F5806290423FF43BAF7E
:100E180008223BE7012239E7022237E7032235E7B8
:100E2800042233E7052231E706222FE703B0F0BD9D
:100E3800704700BF00380140003C014000380240C4
:100E48000000024003685A6912F4806F01D1002043
:100E580070476FF480625A610423036400230363BC
:100E6800202280F83D2080F83C30012070472DE991
:100E7800F04107460D4690461E4620E02EB1FFF78A
:100E880083FE069BC01AB04219D900233B63202277
:100E980087F83D2087F83E3087F83C3003201EE075
:100EA8003B689C6925EA040C1FFA8CFCBCFA8CFC94
:100EB8004FEA5C1CE04511D1B6F1FF3FDED1C5F326
:100EC8000743012BECD13B685B6925EA030C1FFA49
:100ED8008CFCBCFA8CFC4FEA5C1CEBE70020BDE8FC
:100EE800F0812DE9F04105460E461746984633E055
:100EF8001A6842F400721A602B686FF480625A61B3
:100F080004232B6400232B63202285F83D2085F8D9
:100F18003C3001202EE02FB1FFF736FEA0EB080091
:100F2800B84219D900232B63202285F83D2085F883
:100F38003C3003201EE02B689C6926EA0404A4B216
:100F4800003C18BF0124A4B12B685A6912F4806FC1
:100F5800CED1B7F1FF3FDED1C6F30743012BEAD16B
:100F68002B685C6926EA0404A4B2003C18BF01247B
:100F7800E9E70020BDE8F08170B504460D46164645
:100F880023685B6913F0800F19D12046FFF75AFFD9
:100F9800B8B9B5F1FF3FF3D025B1FFF7F5FD801BD8
:100FA800A842EDD9236C43F0200323640023236374
:100FB800202284F83D2084F83C30032000E0002003
:100FC80070BD0120FCE700002DE9F04385B0044620
:100FD8000D46914698460C9E0D9F0368196841F48A
:100FE800807119600097334600224FF00111FFF716
:100FF8003EFF00284ED1236805F0FE051D613B46E3
:10100800324626492046FFF76CFF30B1236C042B8B
:1010180001D003203FE001203DE000230393236833
:101028005A6903929B690393039B3A4631462046CB
:10103800FFF7A2FF58B1236C042B01D003202AE04C
:101048002268136843F400731360012023E0B8F1A9
:10105800010F04D123685FFA89F61E611BE023683B
:101068004FEA19221A613A4631462046FFF784FFB3
:1010780058B1236C042B01D003200CE022681368BC
:1010880043F400731360012005E023685FFA89F6D2
:101098001E6100E0032005B0BDE8F08302000100F6
:1010A80070B504460D46164623685B6913F0040FB5
:1010B80019D12046FFF7C6FEB8B9B5F1FF3FF3D006
:1010C80025B1FFF761FD801BA842EDD9236C43F0E1
:1010D8002003236400232363202284F83D2084F81E
:1010E8003C30032000E0002070BD0120FCE7000038
:1010F800002800F0828010B5044690F83D30002B9F
:1011080041D0242384F83D302268136823F001037A
:10111800136000F059FC3A4BA3FB00239B0C226898
:1011280053606168374A914232D8013322681362AA
:101138006368344A934235D85B00B0FBF3F040F65D
:10114800FC73184200D104202368D861E369216A3E
:1011580022680B4313602369E16822680B4393609C
:101168006369A16922680B43D3602268136843F05E
:101178000103136000202064202384F83D3020639D
:1011880084F83E0010BD80F83C30FFF7F1F9B8E76D
:101198004FF4967202FB03F31B4AA2FB03239B093D
:1011A8000133C3E7A16889B903EB4302B0FBF2F24C
:1011B800C2F30B02B2FA82F25209E2B991B903EB17
:1011C8004303B0FBF3F040F40040BDE703EB8302B8
:1011D80002EB8202B0FBF2F2C2F30B02B2FA82F225
:1011E8005209EAE703EB830303EB8303B0FBF3F055
:1011F80040F44040A8E70120A6E70120704700BF5F
:1012080083DE1B43A0860100D34D62102DE9F04315
:1012180083B004460F46904699460C9EFFF7B4FCEF
:10122800054694F83D00C0B2202803D0022003B040
:10123800BDE8F08300951923012251492046FFF7A4
:1012480016FE002840F0978094F83C30012B00F0FF
:101258009480012384F83C3023681A6812F0010F47
:1012680003D11A6842F001021A602268136823F455
:1012780000631360212384F83D30402384F83E3016
:10128800002323640A9B6362BDF82C3063853D4BC1
:10129800E362638D2385019500964B4642463946A5
:1012A8002046FFF791FEC0B1236C042B04D0002325
:1012B80084F83C300320BAE7002384F83C3001204E
:1012C800B5E7236C042B01D00320B0E7226813682C
:1012D80043F4007313600120A9E7238D002B2AD063
:1012E8002A4631462046FFF747FE0028E9D1636ABF
:1012F8005A1C626222681B781361218D013989B2F8
:101308002185638D9BB2013B9BB2638523685A6933
:1013180012F0040FE1D00029DFD0626A511C61622B
:1013280012781A61238D013B2385638D9BB2013BA3
:101338009BB26385D1E72A4631462046FFF7B0FEC7
:1013480058B1236C042B01D0032070E7226813687E
:1013580043F400731360012069E72268136843F4BB
:1013680000731360202384F83D30002384F83E3056
:1013780084F83C305BE7022059E7022057E700BFBA
:10138800020010000000FFFF002800F0BA8170B5CD
:1013980082B00446036813F0010F3BD09F4B9B6853
:1013A80003F00C03042B2CD09C4B9B6803F00C031C
:1013B800082B21D06368B3F5803F4FD0B3F5A02F39
:1013C80052D0964B1A6822F480321A601A6822F4B6
:1013D80080221A606368002B50D0FFF7D5FB0546C2
:1013E8008E4B1B6813F4003F14D1FFF7CDFB401B55
:1013F8006428F5D903208BE1884B5B6813F4800FD0
:10140800D8D0864B1B6813F4003F03D06368002BC9
:1014180000F07981236813F0020F54D07F4B9B684A
:1014280013F00C0F3ED07D4B9B6803F00C03082B88
:1014380033D0E368002B68D0794B01221A60FFF79C
:10144800A3FB0546754B1B6813F0020F54D1FFF739
:101458009BFB401B0228F5D9032059E16F4A13680A
:1014680043F480331360B5E76C4B1A6842F480226A
:101478001A601A6842F480321A60ABE7FFF784FBFF
:101488000546664B1B6813F4003FC3D0FFF77CFB8F
:10149800401B6428F5D903203AE1604B5B6813F4DC
:1014A800800FC6D15D4B1B6813F0020F03D0E368B1
:1014B800012B40F02A81594A136823F0F803216967
:1014C80043EAC1031360236813F0080F42D063692D
:1014D8006BB3534B0122C3F8802EFFF755FB05462B
:1014E8004E4B5B6F13F0020F34D1FFF74DFB401BDF
:1014F8000228F5D903200BE1484A136823F0F803C2
:10150800216943EAC1031360DDE7454B00221A60F5
:10151800FFF73AFB0546414B1B6813F0020FD2D088
:10152800FFF732FB401B0228F5D90320F0E03C4BC3
:101538000022C3F8802EFFF727FB0546374B5B6F69
:1015480013F0020F06D0FFF71FFB401B0228F5D946
:101558000320DDE0236813F0040F77D02F4B1B6CBA
:1015680013F0805F33D1002301932C4B1A6C42F0A7
:1015780080521A641B6C03F080530193019B012570
:10158800284B1B6813F4807F23D0A368012B34D029
:10159800052B38D0214B1A6F22F001021A671A6FF7
:1015A80022F004021A67A368002B3DD0FFF7ECFA7B
:1015B80006461A4B1B6F13F0020F46D1FFF7E4FAE9
:1015C800801B41F288339842F3D90320A0E000251C
:1015D800D6E7144A136843F480731360FFF7D4FA0C
:1015E8000646104B1B6813F4807FCED1FFF7CCFA68
:1015F800801B0228F5D903208AE0084A136F43F0BC
:1016080001031367CFE7054B1A6F42F004021A670C
:101618001A6F42F001021A67C5E700BF003802409E
:101628000000474200700040FFF7AEFA06463A4B0A
:101638001B6F13F0020F08D0FFF7A6FA801B41F2C8
:1016480088339842F3D9032062E0E5B9A369002BF7
:101658005DD0314A926802F00C02082A5AD0022B57
:1016680017D02E4B00221A66FFF78EFA04462A4B33
:101678001B6813F0007F42D0FFF786FA001B022890
:10168800F5D9032044E0244A136C23F080531364F3
:10169800DCE7224B00221A66FFF776FA05461E4B56
:1016A8001B6813F0007F06D0FFF76EFA401B022874
:1016B800F5D903202CE0E369226A1343626A43EAFE
:1016C8008213A26A5208013A43EA0243E26A43EAF1
:1016D8000263114A5360114B01221A66FFF754FA4C
:1016E80004460D4B1B6813F0007F06D1FFF74CFA38
:1016F800001B0228F5D903200AE0002008E000209A
:1017080006E001207047012002E0012000E00020EF
:1017180002B070BD0120FBE70038024000004742DC
:1017280070B588B00C46154600BB00230193204EC7
:10173800326B42F001023263326B02F00102019215
:10174800019A4FF4807203920222049203220692B5
:101758000593079303A91748FFF78EFAB36823F098
:10176800EC6325431D43B56008B070BD00230293A8
:101778000F4E326B42F004023263326B02F0040205
:101788000292029A4FF400720392022204920322F8
:1017980006920593079303A90748FFF76DFAB36804
:1017A80023F0784344EAC5041C43B460DCE700BF77
:1017B80000380240000002400008024008B5254BEE
:1017C8009B6803F00C03042B3FD0082B3FD1214B1F
:1017D8005A6802F03F025B6813F4800F12D01D4B69
:1017E8005968C1F388111C480023A1FB0001FEF7CA
:1017F800E7FC184B5B68C3F3014301335B00B0FBA4
:10180800F3F025E0134B5968C1F3881C4FEA4C11DB
:10181800B1EB0C006EEB0E0E4FEA8E1343EA9063A9
:101828008101091A63EB0E03DB0043EA5173C90017
:1018380011EB0C0C43F10003990200234FEA8C20B2
:1018480041EA9C51FEF7BCFCD3E7034800E003489B
:1018580008BD00BF0038024040787D010024F40034
:10186800002800F09A8070B50D4604464F4B1B685F
:1018780003F00F038B4208D2CBB24C4A13701368A3
:1018880003F00F038B4240F08A80236813F0020FA5
:1018980017D013F0040F04D0454A936843F4E0537B
:1018A8009360236813F0080F04D0414A936843F407
:1018B800604393603E4A936823F0F003A1680B43AA
:1018C8009360236813F0010F32D06368012B21D095
:1018D8009A1E012A25D9364A126812F0020F60D0E2
:1018E80033498A6822F0030213438B60FFF74CF9EF
:1018F80006462F4B9B6803F00C036268B3EB820F1C
:1019080016D0FFF741F9801B41F288339842F0D98D
:10191800032041E0264A126812F4003FE0D101207A
:101928003AE0234A126812F0007FD9D1012033E04F
:101938001E4B1B6803F00F03AB4207D9EAB21B4BDF
:101948001A701B6803F00F03AB422CD1236813F005
:10195800040F06D0164A936823F4E053E1680B435A
:101968009360236813F0080F07D0114A936823F493
:101978006043216943EAC1039360FFF71FFF0C4BE3
:101988009B68C3F303130B4AD35CD8400A4B186017
:101998000020FFF7AFF8002070BD0120704701203C
:1019A800FAE70120F8E70120F6E700BF003C024013
:1019B800003802407046000818000020014B1868E3
:1019C800704700BF1800002008B5FFF7F7FF044B69
:1019D8009B68C3F38223034AD35CD84008BD00BF89
:1019E800003802408046000808B5FFF7E7FF044BBF
:1019F8009B68C3F34233034AD35CD84008BD00BF99
:101A080000380240804600082DE9F8430446016882
:101A18000A6922F44052C36813430B610168CA681B
:101A280022F4164222F00C028368006903436069BD
:101A38000343E06903431343CB6021684A6922F4F6
:101A48004072A36913434B61E369B3F5004F5ED05D
:101A58002368B54A934200F0108102F580629342F0
:101A680000F00B81FFF7B0FF00EB800000EB800077
:101A78006568AD00B0FBF5F5AC4FA7FB05356D0902
:101A88002E01FFF7A1FF00EB800000EB80006568E6
:101A9800AD00B0FBF5F5FFF797FF00EB800000EB1A
:101AA800800063689B00B0FBF3F3A7FB03235B098B
:101AB8004FF0640808FB13531B013233A7FB0323C1
:101AC8005B0903F0F003F518FFF77EFF00EB8000D9
:101AD80000EB80006668B600B0FBF6F6FFF774FF0F
:101AE80000EB800000EB800063689B00B0FBF3F024
:101AF800A7FB0030400908FB106000013230A7FB4B
:101B08000037C7F3431723682F449F6009E1236810
:101B1800854A93425AD002F58062934256D0FFF725
:101B280053FF00EB800000EB800065686D00B0FBA0
:101B3800F5F57E4FA7FB05356D094FEA0519FFF747
:101B480043FF00EB800000EB800066687600B0FB86
:101B5800F6F6FFF739FF00EB800000EB80006568C0
:101B68006D00B0FBF5F5A7FB05356D094FF064086E
:101B780008FB1565ED003235A7FB05356D096D00CD
:101B880005F4F8754D44FFF71FFF00EB800000EBEC
:101B9800800066687600B0FBF6F6FFF715FF00EBED
:101BA800800000EB800063685B00B0FBF3F3A7FBE9
:101BB80003235B0908FB1363DB003233A7FB0337FE
:101BC800C7F3421723682F449F60AAE0FFF70CFF72
:101BD80000EB800000EB800065686D00B0FBF5F558
:101BE800524FA7FB05356D094FEA0519FFF7FCFEB3
:101BF80000EB800000EB800066687600B0FBF6F62C
:101C0800FFF7F2FE00EB800000EB800065686D00D6
:101C1800B0FBF5F5A7FB05356D094FF0640808FB27
:101C28001565ED003235A7FB05356D096D0005F426
:101C3800F8754D44FFF7D8FE00EB800000EB8000FC
:101C480066687600B0FBF6F6FFF7CEFE00EB800084
:101C580000EB800063685B00B0FBF3F3A7FB032392
:101C68005B0908FB1363DB003233A7FB0337C7F3B9
:101C7800421723682F449F6053E0FFF7B5FE00EB3F
:101C8800800000EB80006568AD00B0FBF5F5274FDC
:101C9800A7FB05356D092E01FFF7A6FE00EB8000B6
:101CA80000EB80006568AD00B0FBF5F5FFF79CFE22
:101CB80000EB800000EB800063689B00B0FBF3F34F
:101CC800A7FB03235B094FF0640808FB13531B01B0
:101CD8003233A7FB03235B0903F0F003F518FFF782
:101CE80083FE00EB800000EB80006668B600B0FB66
:101CF800F6F6FFF779FE00EB800000EB80006368E2
:101D08009B00B0FBF3F0A7FB0030400908FB106014
:101D180000013230A7FB0037C7F3431723682F446D
:101D28009F60BDE8F88300BF001001401F85EB519C
:101D380058B310B5044690F839300BB3242384F80F
:101D480039302268D36823F40053D3602046FFF764
:101D58005BFE2268136923F4904313612268536978
:101D680023F02A0353612268D36843F40053D360F5
:101D78000020E063202384F8393084F83A3010BD1D
:101D880080F83830FEF77AFED8E701207047000067
:101D9800DFF834D0002103E00C4B5B58435004318A
:101DA8000B480C4B42189A42F6D30B4A02E0002328
:101DB80042F8043B094B9A42F9D3FEF71FFE00F0A4
:101DC80011F8FEF75DFC704700000220B0460008DD
:101DD800000000202400002024000020E00400204F
:101DE800FEE7000070B50D4D0D4C641BA4100026D5
:101DF800A64209D10B4D0C4C00F020F8641BA4102E
:101E08000026A64205D170BD55F8043B9847013617
:101E1800EEE755F8043B98470136F2E7A846000874
:101E2800A8460008A8460008AC4600080244034635
:101E3800934200D1704703F8011BF9E7F8B500BFDA
:101E4800F8BC08BC9E467047F8B500BFF8BC08BC93
:041E58009E467047EB
:101E5C000000000000000000000000000000000076
:101E6C000000000000000000000000000000000066
:101E7C000000000000000000000000000000000056
:101E8C0000000000E003E003E003E003E003E003F4
:101E9C00E003E003C003C003C001C001C001C001E6
:101EAC00C001000000000000E003E003E0030000BC
:101EBC0000000000000000003C1E3C1E3C1E3C1EAE
:101ECC003C1E3C1E3C1E00000000000000000000F8
:101EDC0000000000000000000000000000000000F6
:101EEC00000000000000000000000000CE01CE0346
:101EFC00DE039E039C039C07FF3FFF7F3807380FD0
:101F0C00780F780F780EFFFFFFFFF01EF01CE01C1F
:101F1C00E03CE03DE0390000000000000000000063
:101F2C00FC03FE0FEE1FE01EE01EE01EE01EE01F95
:101F3C00E00FE007F003FC01FE01FE01FE01FE01D3
:101F4C00FE01FE01FE3DFC3FF00FE001E001000050
:101F5C0000000000033E07F78FE78EE79EE3BCE32B
:101F6C00B8E7F8E7F0F7E03FC001FF03FF07F3071E
:101F7C00F30FF31EF33CF338F3787FF03FE00000EF
:101F8C000000000000000000E007F80F780F781F39
:101F9C00781F781F780FF00FE00F801FC37FC3FBF3
:101FAC00E7F3F7F1F7F0FFF07FF03EF87F7CFF3FAF
:101FBC00EF1F00000000000000000000E003E00341
:101FCC00E003E003E003C003C001000000000000D8
:101FDC0000000000000000000000000000000000F5
:101FEC0000000000000000000000000000000000E5
:101FFC003F007C00F001E001C003C00780078007B0
:10200C00800F000F000F000F000F000F000F800F4C
:10201C0080078007C007C003E001F0017C003F008F
:10202C000F000000007E001FC007C003E001F0019C
:10203C00F000F000F8007800780078007800780064
:10204C007800F800F000F000F001E001C003C007D8
:10205C00001F007E00780000E003C003C001CE39F1
:10206C00FF3F7F3F20037003F807780F3C1F3806B3
:10207C000000000000000000000000000000000054
:10208C000000000000000000000000000000000044
:10209C000000000000000000C001C001C001C00130
:1020AC00C001C001C001FFFFFFFFC001C001C001A2
:1020BC00C001C001C00100000000000000000000D1
:1020CC000000000000000000000000000000000004
:1020DC0000000000000000000000000000000000F4
:1020EC000000E003E003E003E003E001E001E001B5
:1020FC00C001800300000000000000000000000090
:10210C0000000000000000000000FE3FFE3F000049
:10211C0000000000000000000000000000000000B3
:10212C0000000000000000000000000000000000A3
:10213C000000000000000000000000000000000093
:10214C0000000000000000000000E003E003E003DA
:10215C00E003000000000000000000000F000F0072
:10216C001E001E003C003C0078007800F000F000DF
:10217C00E001E001C003C00380078007000F000FDF
:10218C00001E001E003C003C0078007800F00000AF
:10219C00F007F80F7C1F3E3E1E3C1F7C1F7C0F7807
:1021AC000F780F780F780F780F780F781F7C1F7CC3
:1021BC001E3C3E3E7C1FF80FF007000000000000A4
:1021CC0000000000F000F007F03FF03FF001F001DC
:1021DC00F001F001F001F001F001F001F001F0016B
:1021EC00F001F001F001F001F001FF3FFF3F0000B2
:1021FC000000000000000000E00FF83F7C3C3C00B9
:10220C003E003E003E003C003C007C00F800F0012B
:10221C00E003C0078007000F001E003E003CFE3F9D
:10222C00FE3F00000000000000000000F00FF81F4F
:10223C007C1C3E003E003E003C003C00F800F00FD1
:10224C00F80F7C003E001E001E001E001E003E000B
:10225C007C1CF81FE01F00000000000000000000C4
:10226C007800F800F800F801F803F807F807780F81
:10227C00781E781E783C78787878FFFFFFFF78001E
:10228C0078007800780078007800000000000000EA
:10229C0000000000FC1FFC1FFC1F001E001E001E87
:1022AC00001E001EE01FF81FFC007C003E003E00DC
:1022BC001E003E003E003C007C1CF81FE01F00008E
:1022CC000000000000000000FC01FE078E0F001F44
:1022DC00001E003E003C003CF83DFC3F3E7F1F7E54
:1022EC000F3C0F3C0F3C0F3C0F3E1F1E3E1FFC0FC4
:1022FC00F00300000000000000000000FF3FFF3F63
:10230C00FF3F0F001E001E003C0038007800F0005C
:10231C00F000E001E001C003C0038007800F800FD4
:10232C00000F001F001F0000000000000000000054
:10233C00F807FC0F3E1F1E1E1E3E1E3E1E1E3C1F9F
:10234C00F80FF007F80FFC1E3E3E1F3C1F7C0F7C65
:10235C000F7C1F3C3E3FFC1FF007000000000000FC
:10236C0000000000F007F80F7C1E3E3C1E3C1F7C5A
:10237C001F7C1F7C1F7C1F3C3F3EFF1FEF071F0075
:10238C001E001E003E003C00F838F03FE01F00002D
:10239C000000000000000000000000000000000031
:1023AC0000000000E003E003E003E0030000000095
:1023BC0000000000000000000000E003E003E00368
:1023CC00E00300000000000000000000000000001E
:1023DC000000000000000000E003E003E003E00365
:1023EC000000000000000000000000000000E003FE
:1023FC00E003E003E003E001E001E001C00380033F
:10240C0000000000000000000000000003000F00AE
:10241C003F00FC00F003C00F003F00FE003FC00F68
:10242C00F003FC003F000F00030000000000000060
:10243C000000000000000000000000000000000090
:10244C000000000000000000FFFFFFFF0000000084
:10245C000000FFFFFFFF0000000000000000000074
:10246C000000000000000000000000000000000060
:10247C000000000000E000F8007E801FE007F8017B
:10248C007E001F007E00F801E007801F007E00F830
:10249C0000E000000000000000000000F01FFC3F06
:1024AC003E381F381F381E001E003C007800F0001C
:1024BC00E001C003C003C007C0070000000000001B
:1024CC00C007C007C00700000000000000000000AB
:1024DC00F803FE0F1E1F0F3E7F3CFF78EF79C7738A
:1024EC00C7F38FF38FF38FF39FF39FF3FF73FF7B90
:1024FC00F779003C1C1FFC0FF803000000000000E3
:10250C0000000000000000000000E003E003F00702
:10251C00F007F007780F780F7C0E3C1E3C1E3E3CFB
:10252C00FE3FFF3F1F780F780FF007F007F0000019
:10253C000000000000000000000000000000F83F58
:10254C00FC3F3E3C1E3C1E3C1E3C3E3C7C3CF03F5B
:10255C00F83F7E3C1F3C1F3C0F3C0F3C1F3CFE3F9A
:10256C00F83F000000000000000000000000000028
:10257C000000FF01FF07871F003E003C007C007835
:10258C000078007800780078007C007C003E003FEA
:10259C00831FFF07FF010000000000000000000087
:1025AC00000000000000F07FFC7F7E781F781F7811
:1025BC000F780F780F780F780F780F780F780F78D7
:1025CC001F781E787E78F87FE07F00000000000006
:1025DC0000000000000000000000FF3FFF3F003E35
:1025EC00003E003E003E003E003EFE3FFE3F003EF1
:1025FC00003E003E003E003E003EFF3FFF3F00001D
:10260C000000000000000000000000000000FF1FA0
:10261C00FF1F001E001E001E001E001E001EFF1FBE
:10262C00FF1F001E001E001E001E001E001E001EAE
:10263C00001E000000000000000000000000000070
:10264C000000FE03FF0F871F003E007C007C00781B
:10265C0000F800F87FF87FF80F780F7C0F7C0F3EA6
:10266C008F1FFF0FFE0300000000000000000000A1
:10267C000000000000001F7C1F7C1F7C1F7C1F7C47
:10268C001F7C1F7C1F7CFF7FFF7F1F7C1F7C1F7CA0
:10269C001F7C1F7C1F7C1F7C1F7C00000000000027
:1026AC0000000000000000000000FF3FFF3FE003BF
:1026BC00E003E003E003E003E003E003E003E003F6
:1026CC00E003E003E003E003E003FF3FFF3F000013
:1026DC000000000000000000000000000000FC1FD3
:1026EC00FC1F7C007C007C007C007C007C007C005F
:1026FC007C007C007C007C0078007800F838F03F8F
:10270C00C03F0000000000000000000000000000BE
:10271C0000001F3C1E3C3C3C783CF03CE03DE03F64
:10272C00C03F803FC03FE03FF03DF03C783C7C3CFC
:10273C003E3C1F3C0F3C000000000000000000006D
:10274C00000000000000003E003E003E003E003E47
:10275C00003E003E003E003E003E003E003E003E7D
:10276C00003E003E003EFF3FFF3F00000000000027
:10277C00000000000000000000001FF81FFC1FFC00
:10278C003FFE3FFE3FFE7FFF77FF77FFF7F7E7F750
:10279C00E7F3E7F3C7F307F007F007F007F00000E3
:1027AC0000000000000000000000000000000F7C92
:1027BC000F7C0F7E0F7F0F7F8F7F8F7FCF7FEF7B05
:1027CC00EF79FF79FF78FF787F783F783F781F7833
:1027DC001F78000000000000000000000000000056
:1027EC000000F007FC1F3E3E1F7C0F780F780FF89F
:1027FC000FF80FF80FF80FF80FF80F780F781F7C01
:10280C003E3EFC1FF007000000000000000000002E
:10281C00000000000000FC3FFF3F1F3E0F3E0F3E3C
:10282C000F3E0F3E1F3E3F3EFC3FF03F003E003E42
:10283C00003E003E003E003E003E00000000000056
:10284C0000000000000000000000F007FC1F3E3EEE
:10285C001F7C0F780F780FF80FF80FF80FF80FF8A0
:10286C000FF80F780F781F7C3E3EFC1FF8077C009A
:10287C003F000F0003000000000000000000F03FCC
:10288C00FC3F7E3C3E3C1E3C1E3C3E3C3C3CFC3CEF
:10289C00F03FE03FF03DF83C7C3C3E3C1E3C1F3C96
:1028AC000F3C0000000000000000000000000000D1
:1028BC000000FC07FE1F0E3E003C003C003C003EAE
:1028CC00C01FF80FFE037F001F000F000F001F201A
:1028DC003E3CFC3FF01F0000000000000000000028
:1028EC00000000000000FFFFFFFFE003E003E00337
:1028FC00E003E003E003E003E003E003E003E003B4
:10290C00E003E003E003E003E0030000000000004C
:10291C00000000000000000000000F7C0F7C0F7C0A
:10292C000F7C0F7C0F7C0F7C0F7C0F7C0F7C0F7C43
:10293C000F7C0F7C1E3C1E3C3E3EFC1FF007000033
:10294C00000000000000000000000000000007F084
:10295C0007F007F80F780F7C1E3C1E3C1E3E3C1EF9
:10296C003C1F781F780FF80FF007F007F007E00313
:10297C00E003000000000000000000000000000068
:10298C00000003E003F003F007F0E7F3E7F3E7F3ED
:10299C00E773F77BF77FFF7F7F7F7F7F7E7F7E3FB5
:1029AC003E3E3E3E3E3E00000000000000000000A7
:1029BC0000000000000007F80F7C1E3E3E3E3C1F4E
:1029CC00F80FF007E007E003E003F007F80F7C0FC7
:1029DC007C1E3E3C1F780F780FF0000000000000BA
:1029EC000000000000000000000007F807780F7CD2
:1029FC001E3C1E3E3C1F780FF80FF007E003E0036F
:102A0C00E003E003E003E003E003E003E003000085
:102A1C000000000000000000000000000000FF7F2C
:102A2C00FF7F0F001F003E007C00F800F000E0016B
:102A3C00E003C007800F000F001E003E007CFF7FEC
:102A4C00FF7F00000000000000000000FF0780076F
:102A5C008007800780078007800780078007800732
:102A6C008007800780078007800780078007800722
:102A7C0080078007800780078007FF07FF0700009B
:102A8C0000780078003C003C001E001E000F000F78
:102A9C0080078007C003C003E001E001F000F000F4
:102AAC00780078003C003C001E001E000F000F0058
:102ABC0007000000F07FF000F000F000F000F000E4
:102ACC00F000F000F000F000F000F000F000F0007A
:102ADC00F000F000F000F000F000F000F000F0006A
:102AEC00F000F07FF07F0000C000C001C001E003E7
:102AFC00E003F007F0077807780F380F3C1E3C1EF8
:102B0C001E3C1E3C0F380F780778000000000000B8
:102B1C0000000000000000000000000000000000A9
:102B2C000000000000000000000000000000000099
:102B3C000000000000000000000000000000000089
:102B4C00000000000000FFFFFFFF0000000000007D
:102B5C00F000000000000000000000000000000079
:102B6C000000000000000000000000000000000059
:102B7C000000000000000000000000000000000049
:102B8C000000000000000000000000000000000039
:102B9C00F80FFC3F7C3C3E003E003E00FE07FE1F53
:102BAC003E3E3E7C3E783E7C7E7CFF3FCF1F00004D
:102BBC000000000000000000003C003C003C003C19
:102BCC00003C003CF83DFE3F3E3F1F3E0F3C0F3C9F
:102BDC000F3C0F3C0F3C0F3C1F3C1E3C3E3FFC3F50
:102BEC00F03B0000000000000000000000000000AE
:102BFC000000000000000000FE03FF0F871F003ED6
:102C0C00003E003C007C007C007C003C003E003E12
:102C1C00871FFF0FFE0300000000000000000000F3
:102C2C001F001F001F001F001F001F00FF07FF1FBA
:102C3C003F3E1F3C1F7C1F7C1F7C1F781F781F7C16
:102C4C001F7C3F3C7F3EFF1FDF0F00000000000099
:102C5C000000000000000000000000000000000068
:102C6C00F803FC0F3E1F1E3E1F3C1F7CFF7FFF7FA7
:102C7C00007C007C003C003E071FFF0FFE030000A1
:102C8C000000000000000000FF01E103C003C007CA
:102C9C00C007C007FF7FFF7FC007C007C007C00782
:102CAC00C007C007C007C007C007C007C007C007E0
:102CBC00C007000000000000000000000000000041
:102CCC000000000000000000EF07FF1F7F3E1F3CCC
:102CDC001F7C1F7C1F781F781F781F7C1F7C3F3C3C
:102CEC007F3EFF1FDF0F1E001E001E007C38F83FCA
:102CFC00003C003C003C003C003C003CFC3DFE3FEA
:102D0C009E3F1F3F1F3E1F3C1F3C1F3C1F3C1F3C58
:102D1C001F3C1F3C1F3C1F3C1F3C000000000000E0
:102D2C0000000000F001F0010000000000000000B5
:102D3C00E07FE07FE001E001E001E001E001E00183
:102D4C00E001E001E001E001E001E001E001000050
:102D5C000000000000000000F800F8000000000077
:102D6C0000000000F83FF83FF800F800F800F80009
:102D7C00F800F800F800F800F800F800F800F80087
:102D8C00F800F800F800F000F071E07F003C003C27
:102D9C00003C003C003C003C1F3C3E3C7C3CF83C76
:102DAC00F03DE03DC03FC03FE03FF03DF83C7C3C97
:102DBC003E3C1F3C1F3C00000000000000000000D7
:102DCC00F07FF001F001F001F001F001F001F001F1
:102DDC00F001F001F001F001F001F001F001F0015F
:102DEC00F001F001F001F001F00100000000000022
:102DFC0000000000000000000000000000000000C7
:102E0C009EF7FFFFFFFFFFFFE7FBE7F9C7F1C7F1F5
:102E1C00C7F1C7F1C7F1C7F1C7F1C7F1C7F100009E
:102E2C000000000000000000000000000000000096
:102E3C0000000000FC3DFE3F9E3F1F3F1F3E1F3C1D
:102E4C001F3C1F3C1F3C1F3C1F3C1F3C1F3C1F3C9E
:102E5C001F3C00000000000000000000000000000B
:102E6C000000000000000000F007FC1F3E3E1F3C6D
:102E7C001F7C0F780F780F780F780F781F7C1F3C12
:102E8C003E3EFC1FF00700000000000000000000A8
:102E9C00000000000000000000000000F83DFE3FB4
:102EAC003E3F1F3E0F3C0F3C0F3C0F3C0F3C0F3C7A
:102EBC001F3C1E3E3E3FFC3FF83F003C003C003CAC
:102ECC00003C003C0000000000000000000000007E
:102EDC00EE07FE1F7E3E1E3C1E7C1E781E781E7862
:102EEC001E781E781E7C3E7C7E3EFE1FDE0F1E0072
:102EFC001E001E001E001E0000000000000000004E
:102F0C00000000007F1FFF1FE71FC71F871F001F48
:102F1C00001F001F001F001F001F001F001F001FAD
:102F2C00001F000000000000000000000000000076
:102F3C000000000000000000FC07FE1F0E1E003EFB
:102F4C00003E003FE01FFC07FE003E001E001E007E
:102F5C003E3CFC3FF01F00000000000000000000A1
:102F6C00000000000000800780078007FF7FFF7FC4
:102F7C00800780078007800780078007800780070D
:102F8C0080078007C007FF03FF010000000000005E
:102F9C000000000000000000000000000000000025
:102FAC001E3C1E3C1E3C1E3C1E3C1E3C1E3C1E3C45
:102FBC001E3C1E3C3E3C7E3CFE3EFE1FDE0F0000D7
:102FCC0000000000000000000000000000000000F5
:102FDC000000000007F00F780F781E3C1E3C1E3ED0
:102FEC003C1E3C1E780F780FF00FF007F007E00343
:102FFC00E0030000000000000000000000000000E2
:10300C00000000000000000003F0E3F1E3F3E7F33D
:10301C00F7F3F7F3F77F777F7F7F7F7F7F7F3E3EEE
:10302C003E3E3E3E3E3E0000000000000000000020
:10303C000000000000000000000000000F7C1E3E9D
:10304C003C3E3C1FF80FF007F007E003F007F807D1
:10305C00F80F7C1E3E3E1F3C1F7800000000000055
:10306C000000000000000000000000000000000054
:10307C0007F80F780F7C1E3C1E3C3C1E3C1E3C1F70
:10308C00780FF80FF007F007E003E003C003C0036C
:10309C00C0038007800F007F0000000000000000CC
:1030AC0000000000FF3FFF3F1F003E007C00F800C7
:1030BC00F001E003C007800F001F001E003CFF7FE3
:1030CC00FF7F00000000000000000000FE01E00394
:1030DC00C003C003C003C003E001E001E001C00174
:1030EC00C003803F803FC003C001E001E001E0016C
:1030FC00C003C003C003C003E003FE017E00000058
:10310C00C001C001C001C001C001C001C001C001AB
:10311C00C001C001C001C001C001C001C001C0019B
:10312C00C001C001C001C001C001C001C001C0018B
:10313C00C0010000C03FE003E001E001E001E0015C
:10314C00C001C003C003C001E001FE00FE00E001AD
:10315C00C001C003C003C001E001E001E001E001D7
:10316C00E003C03F003F0000000000000000000032
:10317C000000000000000000000000000000073FFD
:10318C00C77FE773FFF17EF0000000000000000035
:10319C000000000000000000000000000000000023
:1031AC000000000000000000000000000000000013
:1031BC000000000000000000000000000000000003
:1031CC000000000C000C000C000C000C000C000C9F
:1031DC00000C000C000C000C0000000C000C00009B
:1031EC00000000000000001B001B001B001B001B4C
:1031FC0000000000000000000000000000000000C3
:10320C0000000000000000000000801980198019E7
:10321C008019C07FC07F80190033C07FC07F00330E
:10322C000033003300330000000000000000001EDB
:10323C00003F807580650074003C001E000780050F
:10324C00806580658075003F001E0004000400004E
:10325C000000007000D840D8C0D880D90073000698
:10326C00000C801BC036C066C046C0068003000040
:10327C00000000000000001E003F0033003300334C
:10328C00001E000CC03CC066806380618063C03E41
:10329C00801C0000000000000000000C000C000C62
:1032AC00000C000C000000000000000000000000FA
:1032BC000000000000000000000000008000000181
:1032CC000003000600060004000C000C000C000CAF
:1032DC00000C000C00040006000600030001800036
:1032EC00002000100018000C000C00040006000662
:1032FC0000060006000600060004000C000C001876
:10330C00001000200000000C002D003F001E0033B8
:10331C0000000000000000000000000000000000A1
:10332C000000000000000000000000000000000C85
:10333C00000C000C000CC0FFC0FF000C000C000CBB
:10334C00000C000000000000000000000000000065
:10335C000000000000000000000000000000000061
:10336C00000000000000000C000C00040004000829
:10337C000000000000000000000000000000000041
:10338C000000001E001E00000000000000000000F5
:10339C000000000000000000000000000000000021
:1033AC000000000000000000000000000000000C05
:1033BC00000C0000000000000000000300030003EC
:1033CC000006000600060006000C000C000C000CA9
:1033DC000018001800180000000000000000001E7B
:1033EC00003F0033806180618061806D806D806101
:1033FC00806180610033003F001E0000000000006F
:10340C0000000006000E001E003600260006000616
:10341C000006000600060006000600060006000076
:10342C00000000000000001E003F8073806180617E
:10343C00800100030006000C001800300060807F43
:10344C00807F0000000000000000001C003E0063B4
:10345C0000630003000E000E0003800180018061F8
:10346C008073003F001E00000000000000000006FA
:10347C00000E000E001E001E001600360036006600
:10348C00807F807F00060006000600000000000020
:10349C000000007F007F006000600060006E007F15
:1034AC0080638001800180618073003F001E0000FA
:1034BC00000000000000001E003F803380610060AF
:1034CC00006E007F80738061806180618033003F7B
:1034DC00001E0000000000000000807F807F800143
:1034EC000003000300060006000C000C000C000892
:1034FC000018001800180000000000000000001E5A
:10350C00003F8063806180610021001E003F80616C
:10351C00806180618061003F001E0000000000009F
:10352C000000001E003F0073806180618061807329
:10353C00803F801D800180610073003F001E0000F1
:10354C000000000000000000000000000000000C63
:10355C00000C000000000000000000000000000C47
:10356C00000C000000000000000000000000000043
:10357C0000000000000C000C000000000000000027
:10358C000000000C000C0004000400080000000007
:10359C000000000080008003000E0038006000383E
:1035AC00000E8003800000000000000000000000FE
:1035BC0000000000000000000000807F807F000001
:1035CC000000807F807F00000000000000000000F1
:1035DC00000000000000000000000000004000702F
:1035EC00001C000780010007001C00700040000058
:1035FC0000000000000000000000001F803FC071B0
:10360C00C060C000C00180030007000E000C000C5D
:10361C000000000C000C0000000000000000001E68
:10362C00003F803180718063806F806D806D806F12
:10363C00806700600032003E001C000000000000AB
:10364C000000000E000E001B001B001B001B803135
:10365C008031803F803F8031C060C060C06000001E
:10366C00000000000000007C007E0063006300632B
:10367C000063007E007E0063806180618063007F58
:10368C00007E0000000000000000001E003F8031A2
:10369C00806100600060006000600060006080611C
:1036AC008031003F001E0000000000000000007C84
:1036BC00007F0063806380618061806180618061D4
:1036CC00806100630063007E007C0000000000004D
:1036DC000000807F807F0060006000600060007FE1
:1036EC00007F0060006000600060807F807F0000D1
:1036FC00000000000000807F807F006000600060A0
:10370C000060007F007F006000600060006000606F
:10371C0000600000000000000000001E003F80312F
:10372C008061006000600060806380638061806104
:10373C008031803F001E000000000000000080610E
:10374C0080618061806180618061807F807F806129
:10375C0080618061806180618061000000000000F8
:10376C000000003F003F000C000C000C000C000C93
:10377C00000C000C000C000C000C003F003F000083
:10378C0000000000000080018001800180018001A8
:10379C008001800180018001806180618073003F25
:1037AC00001E0000000000000000C060806100638B
:1037BC0000660066006C0078007C006600660063A2
:1037CC0080618061C06000000000000000000060AB
:1037DC0000600060006000600060006000600060DD
:1037EC00006000600060807F807F000000000000AF
:1037FC000000C071C071C07BC07AC06AC06AC06E64
:10380C00C064C060C060C060C060C060C0600000C8
:10381C0000000000000080718071807980798079CF
:10382C00806D806D806D8065806780678067806348
:10383C0080630000000000000000001E003F003309
:10384C008061806180618061806180618061806164
:10385C000033003F001E0000000000000000007E4E
:10386C00007F80638061806180618063007F007E67
:10387C00006000600060006000600000000000005C
:10388C000000001E003F0033806180618061806118
:10389C0080618061806580670033803F401E00003E
:1038AC00000000000000007E007F8063806180616A
:1038BC008063007F007E006600630063806180612E
:1038CC00C0600000000000000000000E001F8031EE
:1038DC00803100300038001E000780038061806159
:1038EC008031003F001E0000000000000000C0FFFF
:1038FC00C0FF000C000C000C000C000C000C000CA9
:10390C00000C000C000C000C000C0000000000006F
:10391C000000806180618061806180618061806174
:10392C0080618061806180618073003F001E0000B7
:10393C00000000000000C060C060C06080318031B9
:10394C008031001B001B001B001B000E000E000E24
:10395C0000040000000000000000C0C0C0C0C0C0D7
:10396C00C0C0C0C0C0CC804C804C805E80528052A5
:10397C008073806180610000000000000000C0C006
:10398C00806080610033003B001E000C000C001EA8
:10399C00001F003B80718061C0C00000000000006F
:1039AC000000C0C08061806100330033001E001E27
:1039BC00000C000C000C000C000C000C000C0000A7
:1039CC00000000000000803F803F800100030003E6
:1039DC000006000C000C0018001800300060807FFE
:1039EC00807F000000000000000F000F000C000C96
:1039FC00000C000C000C000C000C000C000C000C5B
:103A0C00000C000C000C000C000F000F0000001844
:103A1C0000180018000C000C000C000C000600062E
:103A2C000006000600030003000300000000000075
:103A3C00001E001E0006000600060006000600061A
:103A4C00000600060006000600060006000600063A
:103A5C00001E001E0000000C000C001E00120033A3
:103A6C000033806180610000000000000000000055
:103A7C00000000000000000000000000000000003A
:103A8C00000000000000000000000000000000002A
:103A9C000000000000000000E0FF00000000003803
:103AAC000018000C000000000000000000000000E6
:103ABC0000000000000000000000000000000000FA
:103ACC0000000000000000000000001F803F80612B
:103ADC008001801F803F80618063807FC038000040
:103AEC000000000000000060006000600060006EDC
:103AFC00007F807380618061806180618073007F52
:103B0C00006E00000000000000000000000000003B
:103B1C000000001E003F80738061006000608061C7
:103B2C008073003F001E00000000000000008001B8
:103B3C00800180018001801D803F807380618061E5
:103B4C00806180618073803F801D00000000000058
:103B5C0000000000000000000000001E003F007389
:103B6C008061807F807F00608071003F001E0000BC
:103B7C00000000000000C007C00F000C000C807F8C
:103B8C00807F000C000C000C000C000C000C000CD6
:103B9C00000C00000000000000000000000000000D
:103BAC00801D803F80738061806180618061807343
:103BBC00803F801D80018063007F003E000000601C
:103BCC00006000600060006F807F807180618061A8
:103BDC008061806180618061806100000000000074
:103BEC0000000006000600000000003E003E00063B
:103BFC00000600060006000600060006000600008F
:103C0C00000000000006000600000000003E003E20
:103C1C000006000600060006000600060006000668
:103C2C0000060046007E003C000000600060006062
:103C3C000060806100630066006C007C00760063AD
:103C4C0000638061C0600000000000000000003EC6
:103C5C00003E0006000600060006000600060006F0
:103C6C00000600060006000600060000000000002A
:103C7C000000000000000000000080DDC0FFC0CE8E
:103C8C00C0CCC0CCC0CCC0CCC0CCC0CCC0CC000054
:103C9C000000000000000000000000000000006FA9
:103CAC00807F8071806180618061806180618061D2
:103CBC008061000000000000000000000000000017
:103CCC000000001E003F8073806180618061806114
:103CDC008073003F001E0000000000000000000088
:103CEC0000000000006E007F807380618061806145
:103CFC0080618073007F006E006000600060006077
:103D0C000000000000000000801D803F8073806177
:103D1C008061806180618073803F801D80018001A3
:103D2C00800180010000000000000000000000671E
:103D3C00803F00390030003000300030003000305F
:103D4C000030000000000000000000000000000037
:103D5C000000001E803F80610060007F803F80017A
:103D6C008061007F001E00000000000000000000C9
:103D7C00000800180018007F007F001800180018B9
:103D8C00001800180018801F800F000000000000B1
:103D9C000000000000000000000080618061806174
:103DAC0080618061806180618063807F803D0000E4
:103DBC000000000000000000000000000000C060D7
:103DCC00803180318031001B001B001B000E000E67
:103DDC0000060000000000000000000000000000D1
:103DEC00000080DD80DD80DD00550055005500773A
:103DFC0000770022002200000000000000000000FC
:103E0C00000000000000806100330033001E000C35
:103E1C00000C001E00330033806100000000000025
:103E2C0000000000000000008061806180310033E0
:103E3C000033001B001B001B000E000E000E001CAC
:103E4C00007C007000000000000000000000C07F3B
:103E5C00C07F800100030006000C00180030C07FFA
:103E6C00C07F0000000000008003800700060006F1
:103E7C00000600060006000E001C001C000E0006CA
:103E8C0000060006000600068007800300060006F8
:103E9C0000060006000600060006000600060006E6
:103EAC0000060006000600060006000600060006D6
:103EBC000038003C000C000C000C000C000C000E38
:103ECC0000070007000E000C000C000C000C000C8E
:103EDC00003C003800000000000000000000000062
:103EEC0000008038807F00470000000000000000C8
:103EFC0000000000000000000000000000000000B6
:103F0C000000000000000000000000000010001085
:103F1C000010001000100010000000100000000045
:103F2C00002800280028000000000000000000000D
:103F3C000000000000240024007C00240048007CC9
:103F4C0000480048000000000038005400500038C1
:103F5C0000140054005400380010000000200054DD
:103F6C000058003000280054001400080000000025
:103F7C0000100028002800100034004800480034CD
:103F8C0000000000001000100010000000000000F5
:103F9C0000000000000000000008001000200020BD
:103FAC00002000200020002000100008002000103D
:103FBC000008000800080008000800080010002095
:103FCC000010003800100028000000000000000065
:103FDC00000000000000000000100010007C001029
:103FEC0000100000000000000000000000000000B5
:103FFC000000000000000010001000100000000085
:10400C00000000000000003800000000000000006C
:10401C000000000000000000000000000000001084
:10402C000000000000080008001000100010001034
:10403C000020002000000000003800440044005420
:10404C000044004400440038000000000010003020
:10405C0000500010001000100010001000000000B4
:10406C000038004400440004000800100020007CCC
:10407C000000000000380044000400180004000494
:10408C000044003800000000000800180028002838
:10409C000048007C0008000800000000007C004084
:1040AC0000400078000400040044003800000000C8
:1040BC0000380044004000780044004400440038BC
:1040CC0000000000007C000400080010001000201C
:1040DC00002000200000000000380044004400389C
:1040EC000044004400440038000000000038004444
:1040FC0000440044003C0004004400380000000070
:10410C000000000000100000000000000000001083
:10411C000000000000000000000000100000000083
:10412C00000000100010001000000000000C003017
:10413C0000400030000C00000000000000000000F7
:10414C000000007C0000007C00000000000000006B
:10415C00000000000060001800040018006000005F
:10416C00000000000038004400040008001000109B
:10417C00000000100000000000380044004C005407
:10418C00005C0040004000380000000000100028D7
:10419C00002800280028007C004400440000000097
:1041AC000078004400440078004400440044007847
:1041BC000000000000380044004000400040004077
:1041CC000044003800000000007000480044004427
:1041DC00004400440048007000000000007C0040D7
:1041EC000040007C004000400040007C00000000CB
:1041FC00007C00400040007800400040004000403F
:10420C00000000000038004400400040005C004406
:10421C000044003800000000004400440044007CCE
:10422C00004400440044004400000000003800102A
:10423C0000100010001000100010003800000000EA
:10424C0000040004000400040004000400440038CE
:10425C00000000000044004800500060005000487E
:10426C0000480044000000000040004000400040B6
:10427C00004000400040007C000000000044006C46
:10428C00006C005400440044004400440000000052
:10429C0000440064006400540054004C004C004482
:1042AC000000000000380044004400440044004476
:1042BC000044003800000000007800440044004432
:1042CC00007800400040004000000000003800442E
:1042DC000044004400440044005400380004000032
:1042EC000078004400440044007800480048004432
:1042FC0000000000003800440040003000080004BA
:10430C000044003800000000007C00100010001079
:10431C0000100010001000100000000000440044C9
:10432C0000440044004400440044003800000000F5
:10433C00004400440044002800280028001000100D
:10434C000000000000440044005400540054006C71
:10435C00002800280000000000440028002800105D
:10436C000010002800280044000000000044004415
:10437C0000280028001000100010001000000000A1
:10438C00007C000400080010001000200040007C9D
:10439C0000000000001800100010001000100010A9
:1043AC000010001000100018002000200010001059
:1043BC000010001000080008000000000030001081
:1043CC000010001000100010001000100010003041
:1043DC00001000280028004400000000000000002D
:1043EC0000000000000000000000000000000000C1
:1043FC0000000000000000FE002000100000000083
:10440C0000000000000000000000000000000000A0
:10441C0000380044003C0044004C00340000000014
:10442C000040004000580064004400440064005800
:10443C000000000000000000003800440040004074
:10444C000044003800000000000400040034004C5C
:10445C0000440044004C0034000000000000000048
:10446C0000380044007C004000440038000000008C
:10447C00000C0010007C0010001000100010001048
:10448C0000000000000000000034004C0044004418
:10449C00004C0034000400780040004000580064D8
:1044AC0000440044004400440000000000100000E0
:1044BC000070001000100010001000100000000030
:1044CC000010000000700010001000100010001010
:1044DC00001000E000400040004800500060005018
:1044EC000048004400000000007000100010001094
:1044FC000010001000100010000000000000000070
:10450C000078005400540054005400540000000083
:10451C0000000000005800640044004400440044C3
:10452C00000000000000000000380044004400447B
:10453C000044003800000000000000000058006437
:10454C00004400440064005800400040000000009B
:10455C000034004C00440044004C003400040004BF
:10456C000000000000580064004000400040004083
:10457C00000000000000000000380044003000087B
:10458C0000440038000000000020002000780020CB
:10459C000020002000200018000000000000000097
:1045AC000044004400440044004C0034000000006F
:1045BC0000000000004400440028002800280010DF
:1045CC000000000000000000005400540054006C77
:1045DC000028002800000000000000000044002813
:1045EC000010001000280044000000000000000033
:1045FC000044004400280028001000100010006047
:10460C0000000000007C0008001000200040007C2E
:10461C000000000000180010001000100020002006
:10462C0000100010001000180010001000100010F6
:10463C0000100010001000100010001000300010CE
:10464C0000100010000800080010001000100030CE
:10465C000000000000000074004C0000000000008E
:10466C000000000000000000000000000102030434
:10467C0006070809000000000102030448656C6C81
:10468C006F20576F726C640053444B2D312E314D9B
:04469C00000000001A
:0846A00058BBFF7F0100000080
:0446A800AD01000858
:0446AC008901000878
:1046B000101A00005C1E00080B120000A831000850
:1046C000070A0000043F00080024F4000100000075
:0446D00010000000D6
:0400000508001D9939
:00000001FF
